:020000040800F2
:1000000038080020AD010008F733000871300008FF
:10001000C133000869150008B13C00080000000069
:100020000000000000000000000000002F34000865
:100030002D180008000000002D340008DD350008F0
:10004000C7010008C7010008C7010008C701000870
:10005000C7010008C7010008C7010008C701000860
:10006000C7010008C7010008C7010008C701000850
:10007000C7010008C7010008C7010008C701000840
:10008000C7010008C7010008C7010008C701000830
:10009000C7010008C7010008C7010008C701000820
:1000A000C7010008C7010008C7010008C701000810
:1000B00041360008C7010008C7010008C701000851
:1000C000C7010008C7010008C7010008C7010008F0
:1000D000C7010008A53A0008B13A0008BD3A000877
:1000E000C7010008C7010008C701000800F002F8B6
:1000F00000F04DF80AA090E8000C82448344AAF175
:100100000107DA4501D100F042F8AFF2090EBAE872
:100110000F0013F0010F18BFFB1A43F0010318473B
:100120007C4400009C440000103A24BF78C878C189
:10013000FAD8520724BF30C830C144BF04680C60ED
:10014000704700000023002400250026103A28BF35
:1001500078C1FBD8520728BF30C148BF0B60704739
:10016000662904F06681642900F0C280732900F0DA
:10017000A484002070471FB500F0A4FC04000020F8
:10018000002103F001FEE0601FBD10B510BD00F0BE
:1001900099FD1146FFF7EFFF03F0B6FD00F0B7FD44
:1001A00003B4FFF7F2FF03BC00F0FAFD09488047F3
:1001B00009480047FEE7FEE7FEE7FEE7FEE7FEE749
:1001C000FEE7FEE7FEE7FEE704480549054A064B61
:1001D000704700003F360008ED000008380200209C
:1001E0003808002038040020380400200FB41CB563
:1001F000084B06AA7B4469460090059800F02BFC4A
:1002000004460020694600F039FC20461CBC5DF81D
:1002100014FB0000850800000FB47CB50C0009AA8F
:10022000009001D02044401E084B7B446946019059
:10023000089800F010FC05461CB10020694600F04B
:100240001DFC28467CBC5DF814FB0000590800002A
:1002500070B5044685690068C10601D5302600E006
:100260002026C00707D070BDD4E901213046904751
:10027000206A401C20626D1EF6D570BD70B5044624
:1002800085690078C00707D170BDD4E9012120201D
:100290009047206A401C20626D1EF6D570BD70B577
:1002A0000C460546012A05D02878800600D5EA6963
:1002B000002302E0012305E05B1C934202D2E05CD4
:1002C0000028F9D1A869E618C01AA861286A18445C
:1002D00028622846FFF7BCFF04E0D5E9012114F8A5
:1002E000010B9047B442F8D32846FFF7C7FF70BD13
:1002F0002DE9F0410646002410687529314616A5FF
:1003000010D0AFF30080002802DA404213A507E0C6
:1003100031688A0701D512A502E0490704D511A565
:10032000012401E0AFF3008000210A2206F1240736
:1003300009E0B0FBF2FCB0FBF2F302FB1C00303032
:1003400078541846491C0028F3D123462A463046E3
:10035000BDE8F04100F011B9000000002D000000E0
:100360002B000000200000002DE9F05F89460446C4
:100370004FF0000ADFF824B1FB44C0F820A020466B
:10038000E168884700287DD0252806D0D4E90121DE
:100390009047206A401C2062F1E700255F46204616
:1003A000E16888472028064607DB312E05D2B819B8
:1003B00010F8200C08B10543F1E7A80701D525F096
:1003C0000405C4F81CA00027C4F818A02A2E09D0E0
:1003D000304603F092FC38B304EB8708303EC8F88F
:1003E000186019E059F8041B204604EB870291615C
:1003F000E1688847012F064618D1E069002820DA15
:1004000025F020051DE0D8F8180000EB800006EB71
:1004100040003038C8F818002046E1688847064692
:1004200003F06BFC0028EED1012F0AD02E2E08D14C
:100430002046E16888477F1C0646022F45F02005CC
:10044000C4DBA069002803DA404245F00105A06141
:10045000E80701D025F01005A6B1A6F14100192842
:1004600002D8203645F400654A46314620462560CC
:100470004D46FFF775FE60B1012807D0ED1D25F050
:10048000070000E007E000F1080978E705F104093A
:1004900075E730467AE7206ABDE8F09FE440000047
:1004A00040EA0103024630B59B0710D14FF00134FA
:1004B00000E008C208C91D1B9D4315EAC41FF8D0FF
:1004C00013F0FF0102F8011B0DD01B0AF8E711F829
:1004D000013B002B02F8013B05D011F8013B002B3A
:1004E00002F8013BF3D130BD10B5431C02E010F817
:1004F000011B71B18107FAD14FF0013202C88C1A89
:100500008C4314EAC211F9D0C01A0A0603D0C01EE7
:1005100010BDC01A10BD0A0401D0801E10BD090212
:10052000FCD0401E10BD4FF0000200B513469446AB
:100530009646203922BFA0E80C50A0E80C50B1F13B
:100540002001BFF4F7AF090728BFA0E80C5048BF4F
:100550000CC05DF804EB890028BF40F8042B08BFED
:10056000704748BF20F8022B11F0804F18BF00F8E9
:10057000012B70477047704770472DE9F0470D46D3
:1005800099469246044600F124080168880604D57D
:10059000E06921F01001216000E00120A84201DDA6
:1005A000471B00E00027A1697A1902EB0900081A2D
:1005B000A0612078C00602D42046FFF749FE00263D
:1005C00008E0D4E901211AF806009047206A401C8F
:1005D000761C20624E45F4DB2078C0060AD5204602
:1005E000FFF736FE06E0D4E9012130209047206A6B
:1005F000401C2062381EA7F10107F4DC07E0D4E9B3
:10060000012118F805009047206A401C2062281E2E
:10061000A5F10105F3DC2046FFF730FE2078000647
:1006200002D50220BDE8F0870120FBE770472DE9E5
:10063000FF4F0C461E464FF0FF378BB0D2E900014A
:10064000DDF860800A908A46C1F30A5505B93D4637
:10065000002108464FF00000BAF1000F00F44000FE
:1006600005DA00EB80004FF4400101EA50004FEA48
:100670009059B9F1010F00DDB9460A9850EA4A00D5
:100680000ED044F61050A5F2FF3545432F14B8F1B3
:10069000000F1ED07542291E1EDDC9F100021CE0AC
:1006A000B8F1010F4FF0000001D0302103E0F24318
:1006B00005E02154401CB042FBDB30460022002103
:1006C00021540B99C1F80880C1E900200FB0BDE8A2
:1006D000F08FBD1B6D1CDEE74A4600DA694206A8B2
:1006E00000F07AFA06AB93E8070003AB83E8070053
:1006F00050460A9900F05BFB8DE80700A0F500501A
:100700001F3800900398002D0ADD42F21F014A466F
:100710000844002303A90390684600F0C4FD09E0E3
:10072000A0F500504A461F38002303A903906846ED
:1007300000F0CEFD8DE807000004000C03D04FF060
:10074000FF30410800E01046B8F1000F03D000224E
:10075000009215461EE0751E05D400F0B7F9303240
:1007600062556D1EF9D5B3460122084302D000221E
:100770007F1C04E02078302801D100227F1E002A4F
:10078000099784D01DE0112D07DA00F09FF930326F
:1007900062556D1C50EA0102F5D1084302D0009861
:1007A000C8B10EE00021681E05E0235C625C635462
:1007B0002254401E491C8142F7DBAB46A81B401E59
:1007C0000990002004F80B000B98099AC0F80880E3
:1007D000C0E9002B7AE711264FF0000857E72DE912
:1007E000F04F88460446D21D22F0070191B0D1E9AE
:1007F0000001CDE90A0103F05CFA02460B98C00F34
:1008000001D02D2007E02068810701D52B2002E0D0
:10081000202101EAC000032A099001D0072A05DB44
:1008200003464146204600F097F90BE12078800608
:1008300001D5E06900E00620B8F1650F814606D0D9
:10084000B8F1660F18D0B8F1670F70D131E0002011
:10085000B9F1110F009001DB112301E009F101034F
:100860000AAA01A90CA8FFF7E2FEDDE90C70002638
:1008700009F10105834647E001204B4600904FF007
:1008800000470AAA01A90CA8FFF7D1FEDDE90DB0C7
:100890000C995D46002610B909F101000D18B9EB5D
:1008A000050003D4C0F1FF3609F10105A5EB0900ED
:1008B0002BE0B9F1010F01DA4FF001090020B9F185
:1008C000110F0090484601DD112300E003460AAAFB
:1008D00001A90CA8FFF7ABFEDDE90C704D46002620
:1008E0008346207800070AD4AB4500DA5D4601A8AC
:1008F000012D04DD411911F8011C302907D04F45A5
:1009000002DA17F1040F04DA012082460FE06D1EAF
:10091000EEE7002F02DCED1B3E4403E0781CA8420A
:1009200000DD7D1CB81B00F1010A4FF00047207864
:10093000000703D4AA4501DB4FF0FF3A0021B7F1CD
:10094000004F0DF143088DF8431024D002202B23D3
:10095000002F01DA7F422D230A21021EA0F101009F
:1009600000DC5FB197FBF1FC97FBF1F201FB1C7C13
:1009700017460CF1300C08F801CDEEE7A8F10100A4
:1009800003702188090501D5452100E06521A0F10A
:10099000010800F8011C09980FA9A1EB0807FF1D29
:1009A00000B10120411901EBEA70A1693844081A2D
:1009B000401EA0612078C00602D42046FFF748FC04
:1009C000099828B1D4E901219047206A401C20628F
:1009D0002078C00622D52046FFF73AFC1EE0002E04
:1009E00004DBB34502DD01A8805D00E03020D4E9DE
:1009F00001219047206A401C2062761CAAF1010068
:100A00005FEA000A0AD100F05DF8C0680168405C46
:100A1000D4E901219047206A401C2062281EA5F1DC
:100A20000105DCDC07E0D4E9012118F8010B90474F
:100A3000206A401C2062381EA7F10107F3DC204623
:100A4000FFF71CFC032011B041E6000001694A1CBD
:100A500002610878704700B58FB0CDE901310021FF
:100A6000059105497944CDE9031011466846FFF721
:100A70007BFC0FB000BD0000E5FFFFFF0A6802F835
:100A8000010B0A607047D1E900239A4202D2531C3D
:100A90000B601070704710B5436913B1AFF300805D
:100AA00001E0FFF7FCFB012010BD127800F12401EA
:100AB0000A7000224A700122EDE711684FF0FF3200
:100AC000E9E7000000487047F801002030B5B0F1B8
:100AD0000A024FEA900E71F100034EEA817EB0EBFC
:100AE0000E0061EB91014FEA101E4EEA017E10EB01
:100AF0000E0041EB11114FEA102E4EEA016E10EB81
:100B00000E0041EB11214FEA104E4EEA014E10EB60
:100B10000E0041EB1141401841F100014FEAD000B5
:100B200040EA41704FEAD10110EB80054FEA8104A1
:100B300044EA907444EB01046D1944EB0404521B25
:100B4000A3414FF0000348BF0A3200D530BD401C1E
:100B500041F1000130BD00002DE9F0411F4604467F
:100B600003260168072A01F4006004DB08B116A51A
:100B700005E016A503E008B115A500E015A521F0D4
:100B800010002060A069C01EA0610FB1401EA061CE
:100B90002046FFF75DFB4FB1D4E90121384690476D
:100BA000206A401C2062C01C206206E0206AFAE72E
:100BB000D4E9012115F8010B9047761EF8D22046A2
:100BC000FFF75CFBBDE8F0814E414E006E616E00A8
:100BD000494E4600696E66002DE9F047814616468B
:100BE0008AB0354878440DC88DE80D003248784405
:100BF000801C03AC0DC884E80D0041F69B3008440E
:100C0000372190FBF1F290FBF1F5A5F1800501FB96
:100C100012041B3C02D56442012000E00020DFF8F2
:100C200098A080460027FA44AAF1BE0A0EE0E00729
:100C30000AD03246684607EB470101230AEB8101DF
:100C400000F046FB8DE8070064107F1C002CEED1FD
:100C5000194F7F44AE3F19E0E80715D007EB0410A9
:100C60000DF1180A90E80E008AE80E00C068F04204
:100C700001D1981908903246012306A903A800F073
:100C800027FB03AB83E807006D10641C002DE3D144
:100C90004FF0010332466946B8F1000F03A802D0B5
:100CA00000F001FB01E000F013FBC9E90001C9F805
:100CB00008200AB0BDE8F0870839000000487047F6
:100CC000D80100207546FFF7F9FFAE4605006946DA
:100CD000534620F00700854618B020B5FFF774FA98
:100CE000BDE820404FF000064FF000074FF000082D
:100CF0004FF0000B21F00701AC46ACE8C009ACE8AE
:100D0000C009ACE8C009ACE8C0098D46704710B511
:100D10000446AFF300802046BDE81040FFF740BA1C
:100D20004FF0013C50F8042B51F8043B9A4221D17A
:100D3000A2EB0C03934313EACC1317D150F8042B06
:100D400051F8043B9A4215D1A2EB0C03934313EAEA
:100D5000CC130BD150F8042B51F8043B9A4209D123
:100D6000A2EB0C03934313EACC13DBD04FF000004B
:100D7000704700BFD01A01BAB1FA81F101F0180131
:100D800022FA01F0CB40C1F12001DBB2C0B2C01A9F
:100D90002CFA01F3D11A914311EAC311E6D170473D
:100DA00001491820ABBEFEE72600020070475FEA4B
:100DB000400C08BF91F0000F4FEA8C234FEAC1228C
:100DC00043EA51514FEA1C5018BF00F5F0404FEA7A
:100DD000300018BF41F000415FEA6C5C00F02980F0
:100DE000BCF1FF3F08BF40F080407047130C06BFC6
:100DF00012044FF0100C4FF0000C130E04BF12023F
:100E00000CF1080C130F04BF12010CF1040C930F2A
:100E100004BF92000CF1020CD30F04BF52000CF17E
:100E2000010C11464FF00002A0F11F00A0EB0C00D6
:100E3000704711F0004F08BF704731F000413FF498
:100E4000D5AF0B0C06BF09044FF0100C4FF0000C8F
:100E50000B0E04BF09020CF1080C0B0F04BF0901B3
:100E60000CF1040C8B0F04BF89000CF1020CCB0FAA
:100E700004BF49000CF1010CCCF12003A0EB0C00E5
:100E800022FA03F302FA0CF241EA030100F1010035
:100E9000704720F07F4C80EA030023F07F47ACEBE3
:100EA000070303F57C5300F0004003F1FF032DE935
:100EB00080494FEA154B09B44FEA144325EA0B4E1B
:100EC00024EA03480FF2042606EB132749083E786C
:100ED0005FEA320203FB0667C7F5000707FB06F669
:100EE0004FEA54374FEAD64606F1020607FB066C76
:100EF000CCF1005C4FEA1C472CEA074C07FB06F4D8
:100F00000CFB06F504EB15464FEA961634BF00209D
:100F10004FF000404FEAD13706FB07FC4FEA1C4C6C
:100F20000CFB0BF7D21B03FB0CF761EB07010CFB6F
:100F30000EF7B0EB074072EB17420CFB08F734BF1B
:100F4000A2EB0742B2EB074261EB17414FEA0C44B8
:100F50004FEA910706FB07FC4FEA1C4C0CFB0BF712
:100F6000B0EBC74072EB573203FB0CF734BFA2EB78
:100F7000C742B2EBC74261EB57310CFB0EF7B0EB47
:100F8000C70072EB57720CFB08F734BFA2EBC70225
:100F9000B2EBC70261EB5771039F4FEA816141EAEF
:100FA000921104EBCC044FEAD1374FEA826206FB80
:100FB00007FC42EA90124FEA80604FEA1C4C0CFB9F
:100FC0000BF7D21B03FB0CF761EB07010CFB0EF7D1
:100FD000B0EB074072EB17420CFB08F734BFA2EBF3
:100FE0000742B2EB074261EB17414FEA8C554FEADB
:100FF000910704EB9C2406FB07FC4FEA1C4C0CFBFE
:101000000BF7B0EBC74072EB573203FB0CF734BF62
:10101000A2EBC742B2EBC74261EB57310CFB0EF7B4
:10102000B0EBC70072EB57720CFB08F734BFA2EBB2
:10103000C702B2EBC70261EB577115EB4C254FEAC3
:10104000816141EA92114FEA82624FEAD13742EA66
:10105000901206FB07FC44F100044FEA80604FEA5F
:101060001C4C0CFB0BF7D21B03FB0CF761EB0701CD
:101070000CFB0EF7B0EB074072EB17420CFB08F7C6
:1010800034BFA2EB0742B2EB074261EB174115EB0D
:101090001C154FEA813141EA92414FEA823242EA1D
:1010A00090424FEA80304FEA0C7644F1000448EA5F
:1010B00003434EEA0B484FF0000EB2EB080C71EB05
:1010C000030724BF624639464EEB0E0E4FF0000B6D
:1010D0000018524149414BEB0B0BB2EB080C71EB82
:1010E00003077BF1000B24BF624639464EEB0E0E20
:1010F0004FF0000B0018524149414BEB0B0BB2EB88
:10110000080C71EB03077BF1000B24BF62463946E4
:101110004EEB0E0E51EA020718BF46F0010616EB21
:101120000E7655F1000254F1000103D5BDE88901A6
:10113000BDE80088BDE88901BDE80048B619524104
:1011400041EB0101A3F10103704780807F7E7D7C2C
:101150007B7A7978777676757473727171706F6E49
:101160006E6D6C6C6B6A6A696868676666656464F4
:10117000636362616160605F5F5E5E5D5D5C5C5B7E
:101180005B5A5A59595858575756565555555454ED
:10119000535352525251515050504F4F4F4E4E4D4B
:1011A0004D4D4C4C4C4B4B4B4A4A4A494949484897
:1011B00048474747474646464545454444444443D7
:1011C00043434342424242414141002B9C4630D47A
:1011D00077002BD01CB54FEA370703B44FF010004F
:1011E0004FF01001BAF1000F06D0BCF1000FDCBFC8
:1011F00040F0080040F008014FF000000FBCBDE8CF
:1012000010400BF1010BBBF1010F08BF5FEA17079C
:1012100022BF12F1010211F101014FF0004143F12F
:10122000000300F0004043EA00007047F9D357087C
:10123000D0E746EA064613F1400F4FEA16461FDD97
:1012400013F1200FDFBF16430A46002120335B4213
:10125000BED0C3F1200746EA064602FA07F74FEA76
:10126000164646EA0706C3F1200722FA03F201FAFE
:1012700007F721FA03F14FF0000342EA0702A7E75C
:1012800046EA020646EA06464FEA164646EA0106DE
:10129000BCBF46EA0646360C4FF000034FF0000292
:1012A0004FF0000194E72DE9804C9A46934670B4C4
:1012B00091E8380007C831EA400C48BF34EA430CD3
:1012C00003D5FFF7E6FDFFF780FFF0BCBDE8008C1B
:1012D0002DE9804C9A46934670B491E8380007C8CF
:1012E00010F0804F08BF13F0804F03D100F005F8D5
:1012F000FFF76BFFF0BCBDE8008C20F07F4780EA71
:10130000030023F07F4C07EB0C03A3F57C5300F0A4
:101310000040A3F1FE0392F0000F00F0B38095F0BF
:10132000000F00F077802DE901494FEA11404FEAA4
:10133000144621EA004800FB06FC24EA064708FBA5
:1013400006F607FB08F800FB07F718EB06484CEB1E
:10135000164C4FEA124B18EB07484FEA15464CEB78
:10136000174022EA0B4E0BFB06FC25EA06470EFB54
:1013700006F607FB0EFE0BFB07F71EEB064E4CEBCB
:10138000164C4FF000061EEB074E4CEB174B18EBBC
:101390000B0840F1000018EB0E0B58EB000840F171
:1013A00000008F1A4FF000013CBFC943661B14BFF9
:1013B000B5EB040C00213CBFC943F61B4FEA1744B0
:1013C0004EEA8E0E27EA04454FEA1C4704FB0762EB
:1013D0002CEA074C05FB07F70CFB05F604FB0CFC9D
:1013E00016EB074642EB174216EB0C4642EB1C424B
:1013F0001BEB060658EB0202414146EA9E0601D568
:10140000BDE80189B619524141EB0101A3F1010385
:10141000BDE801894FEA14454FEA114724EA054621
:1014200021EA074C05FB07F406FB07F70CFB06F166
:1014300005FB0CFC11EB074144EB17444FEA124744
:1014400011EB0C4144EB1C4422EA074C05FB07F26C
:1014500006FB07F70CFB06F605FB0CFC16EB074634
:1014600042EB174216EB0C4642EB1C456A1854F14E
:10147000000148BF7047B619524141EB0101A3F189
:101480000103704795F0000F37D04FEA11424FEA41
:10149000144721EA024624EA074C02FB07F106FB47
:1014A00007F70CFB06F402FB0CFC14EB074441EBC2
:1014B00017414FEA154714EB0C4441EB1C4125EA58
:1014C000074C02FB07F506FB07F70CFB06F602FBD1
:1014D0000CFC16EB074645EB174516EB0C4645EBA7
:1014E0001C42121951F1000148BF7047B619524110
:1014F00041EB0101A3F1010370474FEA14454FEAA4
:10150000114724EA054621EA074C05FB07F106FBD3
:1015100007F70CFB06F24FF0000605FB0CFC12EB84
:10152000074241EB174112EB0C4251EB1C4148BF03
:101530007047921841EB0101A3F1010370470000CD
:10154000084900220B78984201D9087008E007D2B8
:101550008B7803F1010313F0FF038B70F5D1704713
:101560008A7070473C000020FEE700002DE9F04142
:10157000044600F0BBFD0346002501200704114A84
:1015800011492E46052C09D2DFE804F01403061891
:1015900018004FF4FA7506E0642504E054B1042CF9
:1015A0000CD0032C0AD0CC681C1BAC4204D3CB60FB
:1015B0008B781BB117608E70BDE8F0811060887069
:1015C000FAE70000100C01404C00002070B5364CCA
:1015D000374D364B2068002229788CB0984201DCC8
:1015E000032900D3802266689E4202DC6E78032EB7
:1015F00001D342F04002A6689E4202DCAE78032E80
:1016000001D342F02002E6689E4202DCEB78032B15
:1016100001D342F01002274B1B7803F00F03134352
:10162000254A8DF8043012788DF80520234A127867
:101630008DF8062001F0E0FE8DF8070069786068FB
:1016400001F0DAFE8DF80800A978A06801F0D4FE58
:101650008DF80900E978E06801F0CEFE8DF80A0007
:1016600017484FF08641006802F0D6FB02F020FDDB
:101670008DF80B004FF48070039000200821CDE915
:101680000601049005908DF820000BAB01AA03A978
:101690000C4800F0E3F9002803D00B480168491C0E
:1016A00001600CB070BD00001800002000A00C46C6
:1016B000380000203C0000203F00002040000020B7
:1016C0005C000020900000204400002000B58BB09A
:1016D00000200121CDE906010590009001900290C3
:1016E000039004900E20CDE908106946074800F0E9
:1016F00013FA08B100F094F9044800F053FB0028F5
:1017000001D000F08DF90BB000BD0000900000206A
:101710002DE9F05F374C384FDFF8E0800025785D29
:1017200008B1002601E058F825602146304602F055
:101730000BFD00D234466D1CEDB2042DEFD33048C2
:10174000844201DB00250AE02E48844201DB0125AA
:1017500005E02D48844201DB022500E004252B48EA
:10176000006820F00040B0F1804F01DA00260AE066
:101770002749884201DA012605E0B0F1814F01DAFC
:10178000022600E00426B54201D92F4600E0374684
:10179000C246DFF88090DFF88080DFF880B0002458
:1017A00058F82410494508DC5AF8240002F0CCFD12
:1017B00020F00041594500DD0427641CE4B2042CEC
:1017C000EED31749174A00200B5C1BB1135C032BA7
:1017D00000D30427401CC0B20428F5D31248042FBC
:1017E000C570067103D1042D01D20421C170477068
:1017F000BDE8F09F804FC34709000020180000207B
:101800000000F0420000C8420000A0425C0000203E
:101810000000404000A00C46280000200000484383
:1018200011000020380000203C000020704700001C
:101830002DE9F04F5848CDB00478584801788C42D3
:1018400007D14178322904D2491C41704DB0BDE81E
:10185000F08F534D047000264670286802F00CFC8F
:101860000190686802F008FC0090A86802F004FC8F
:101870000290E86802F000FC83464B484949006842
:1018800002F096FC02F0F8FB052C0ED2DFE804F023
:10189000030507090B0045A308E046A306E047A39C
:1018A00004E048A302E049A300E04BA34C490D78B3
:1018B0004C490A78954201D34BA100E04BA18A46DE
:1018C000AA4201D348A100E048A189464A96484F60
:1018D0004B9600210DF5947617F801C0BCF1000F6E
:1018E00002D04FF0420C01E04FF02E0C06F801C080
:1018F000491CC9B20429EFD3052C0ED2DFE804F04D
:10190000030507090B003BA115E03BA109E03BA142
:1019100007E03BA105E03AA10AE03AA1042C07D078
:101920004CB10FF2E40C6424002807DB074607E003
:101930000FF2CC0CF7E70FF2BC0CF4E7C0F1000794
:1019400097FBF4F804FB187702DA00BFC0F100003F
:10195000CDE90CC190FBF4F0CDE90A26CDE9085998
:10196000CDE9067A01DA2AA400E02AA4CDE90440F0
:10197000DDE90010CDE90001CDF80CB0264A4FF0AA
:10198000F0010EA8FEF748FC82B24FF4FA730EA9DC
:10199000224801F092FA59E73C000020480000205C
:1019A000180000200000C8425C0000204E4F524D3D
:1019B000414C00004C4556454C3100004C455645C5
:1019C0004C3200004C4556454C330000454D4552C5
:1019D00047454E4359000000554E4B4E4F574E0061
:1019E0003F000020400000202A00000020000000EE
:1019F000090000204F46460031487A0035487A00F9
:101A00004F4E00003F3F3F00424C494E4B0000000C
:101A10002D00000000000000084500080001002023
:101A200072B6FEE70B4910B54FF4165048600846F1
:101A300001F076F908B172B6FEE707494FF4E130DC
:101A40004860084601F06CF9002801D072B6FEE744
:101A500010BD00004801002090010020F0B590F872
:101A600020500468A468012D05D0022D03D0416ADE
:101A700041F480214DE014F0406F01D1E50045D5DF
:101A8000C4F301640125A5401D608D684FF4C07347
:101A90009DB1CE6835434E6845EAC605066803EB3E
:101AA0000417F5514FF4C275076805EB04150E696C
:101AB0007E51097D012905D009E00E88CD6845EAEF
:101AC0004655EBE701684E5946F480764E51117940
:101AD000D2F805504FF4C67641EA0521056806EBB9
:101AE0000416A9511178D2F801204FF4C47541EAC7
:101AF0000221026805EB04155151006803EB041143
:101B0000425842F0010242500020F0BD416A41F4C7
:101B1000001141620120F0BD10B590F8203002683C
:101B2000012B07D0022B05D0416A41F4802141628C
:101B3000012010BDD2F8000240F00100C2F80002FE
:101B4000087D00F01F0301209840D2F81C32834327
:101B5000C2F81C32CB69B3B9D2F80C328343C2F855
:101B60000C328C894B6864F31F434C6902EBC4044C
:101B7000C4F840320C890B6864F31F434C6902EBD4
:101B8000C404C4F84432CB69012B16D1D2F80C320C
:101B90000343C2F80C320C884B6864F31F434C6952
:101BA00002EBC404C4F840320C89CB6864F31F43D1
:101BB0004C6902EBC404C4F844328B69002BD2F8A0
:101BC00004320FD053EA0003C2F804320B69002B31
:101BD000D2F8143208D00343C2F81432096A01293A
:101BE00004D008E08343EFE78343F5E7D2F81C1203
:101BF0000143C2F81C12D2F8000220F00100C2F822
:101C00000002002010BD70B5040003D094F820003D
:101C100010B104E0012070BD204600F081F820687A
:101C2000016841F00101016000F060FA05460526F7
:101C300004E000F05BFA401B0A2811D820684068D5
:101C4000C007F6D02068016821F00201016000F0B1
:101C50004DFA05460BE000F049FA401B0A2806D968
:101C6000606A40F40030606284F82060D2E7206847
:101C700040688007EFD4207E0128206801683DD0AD
:101C800021F080010160607E01282068016838D061
:101C900021F040010160A07E01282068016833D056
:101CA00021F020010160E07E0128206801682ED02B
:101CB00041F010010160207F01282068016829D0CF
:101CC00021F008010160607F01282068016824D0AC
:101CD00021F004010160D4E902010843D4E90412AF
:101CE000114308436168491E08432168C861002008
:101CF0006062012084F82000002070BD41F0800166
:101D0000C0E741F04001C5E741F02001CAE721F0FA
:101D10001001CFE741F00801D4E741F00401D9E711
:101D200010B586B0002100910191029103910068E5
:101D3000184988422BD11848C16941F00071C1612E
:101D4000C16901F000710491816941F0080181616C
:101D50008069124C00F0080004904FF480700090ED
:101D60006946204600F0CCF86015009002200190F2
:101D7000032003906946204600F0C2F808484168F5
:101D800021F4C04141F0E06141F48041416006B07E
:101D900010BD00000064004000100240000C014033
:101DA0000000014070B5044690F82000012804D0DE
:101DB000606A40F40020606218E0022084F820008D
:101DC0002068016821F00101016000F08FF90546EB
:101DD0000EE000BF00F08AF9401B0A2808D9606AAB
:101DE00040F400306062052084F82000012070BDBE
:101DF00020684068C007EDD1606270BD10B590F8F2
:101E000021100022022905D00421816380F82020BE
:101E1000012010BD01680B6823F00E030B60016800
:101E20000B6823F001030B6090F84030C46B012174
:101E300001FA03F3636080F8211080F82020104637
:101E400010BD000010B590F821100024022903D025
:101E50000421816301243DE001680A6822F00E023A
:101E60000A6001680A6822F001020A601A4A0168E1
:101E7000914201D1012121E0174A1432914201D14E
:101E800010211BE0144A2832914201D1891515E036
:101E9000114A3C32914201D189140FE00E4A50326E
:101EA000914202D14FF4803108E00B4A64329142F2
:101EB00002D14FF4801101E04FF08071064A083AD8
:101EC0005160012180F82110002180F82010416B21
:101ED00001B18847204610BD0800024070B5044695
:101EE00000F004F90546601C02D004480078044460
:101EF00000F0FCF8401BA042FAD370BD8000002027
:101F00002DE9F84FDFF8B8910024A9F1040B23461E
:101F10000F2709F1040AABF1040EC9E00125A54021
:101F20002A40AA427DD1674ED1F804C0ACEB060826
:101F3000B44532D014DCBCF1030F3AD009DCBCF15B
:101F4000000F2AD0BCF1010F1CD0BCF1020F31D11F
:101F50001DE0BCF1110F17D0BCF1120F2AD119E00E
:101F6000B8F5881F19D006DCB8F5803F15D0B8F554
:101F7000801F1FD111E0B8F5001F0ED0B8F5041F67
:101F800018D10AE0CB6815E0CB681B1D12E0CB68C6
:101F900008330FE0CB680C330CE08B682BB1012BBE
:101FA0004FF0080303D0456104E0042302E005611B
:101FB00000E00023FF2A01D8064601E000F10406F4
:101FC0004FEA840501D9A5F12005D6F8008007FA6B
:101FD00005FC28EA0C0803FA05F548EA0508C6F8E6
:101FE00000804D68ED0062D5374DAE6946F00106C0
:101FF000AE61AD6924F0030605F001050095334D8F
:1020000006EB050CDCF80850A607360F07FA06F8B1
:1020100025EA0805DFF8B880404503D14FF00008F5
:1020200017E044E0DFF8AC80404502D14FF00108F2
:102030000FE0DFF8A480404502D14FF0020808E02D
:10204000DFF89880404502D14FF0030801E04FF0DF
:10205000040808FA06F848EA0508CCF808804D6834
:10206000D9F80060ED024D4601D5164300E09643D5
:102070002E604D68DAF80060AD02554601D5164372
:1020800000E096432E604D68DBF80060AD035D46CE
:1020900001D5164300E096432E604D68DEF80060DF
:1020A000ED03754601D5164300E096432E60641C8F
:1020B0000D682A46E5407FF431AFBDE8F88F000097
:1020C000080401400000111000100240000001400F
:1020D00000080140000C01400010014000140140C4
:1020E0000AB1016170470904FBE7000001488068FC
:1020F0007047000080000020024881680278114487
:102100008160704780000020074810B5016841F0E9
:1021100010010160032000F075F80F2000F006F8B0
:1021200000F024F8002010BD0020024070B50D4DD5
:1021300004464FF47A712878B1FBF0F00A49096837
:10214000B1FBF0F000F0DCFA48B9102C07D2002205
:102150002146501E00F036F800206C6070BD012052
:1021600070BD0000800000208C0000200C4808B5E5
:10217000816941F001018161816901F001010091F2
:10218000C16941F08051C161C06900F08050009088
:102190000448416821F0E06141F00071416008BDF0
:1021A0000010024000000140002809DB00F01F027F
:1021B000012191404009800000F1E020C0F80011A9
:1021C00070470000F0B40E4B1B680C46C3F30223AB
:1021D000C3F10705042D00D90425191D072901D2D3
:1021E000002300E0DB1E012606FA05F1491E21400E
:1021F00099409E40761E16403143F0BC01F06DBD03
:102200000CED00E0064900F0070208684FF6FF03F6
:10221000184040EA0220034A10430860704700005B
:102220000CED00E00000FA052DE9F0470F4605002F
:1022300061D0434E306800F00700B84209D23068E0
:1022400020F0070038433060306800F00700B842E3
:1022500051D128683B4C810712D5400703D56068EF
:1022600040F4E06060602878000703D5606840F4BF
:10227000605060606068A96820F0F000084360600A
:102280002878C00728D06868012810D02168022863
:1022900010D0890700292EDA616821F0030101437B
:1022A0006160FFF723FF804641F288390DE0216825
:1022B0008903EFE78901EDE7FFF718FFA0EB0801BD
:1022C000494502D90320BDE8F0876068696800F0DD
:1022D0000C00B0EB810FEFD1306800F00700B8427E
:1022E0000BD9306820F0070038433060306800F0C8
:1022F0000700B84201D00120E5E72878400705D55E
:102300006068E96820F4E0600843606028780007AE
:1023100006D56068296920F4605040EAC100606019
:1023200000F038F86168084AC1F30311515CC840F5
:102330000649086006480068FFF7F8FE0020C2E77B
:102340000020024000100240484400088C00002099
:10235000840000200448054900684968044AC1F324
:102360000221515CC84070478C00002000100240E0
:10237000584400080448054900684968044AC1F304
:10238000C221515CC84070478C0000200010024000
:10239000584400080E4A51680E4801F00C03042B03
:1023A00011D0082B0FD10C48C1F38343C903C05C83
:1023B0000AD55168084AC1F34041921E515C054A52
:1023C0005043B0FBF1F070470449484370470000A8
:1023D0000010024000127A003844000800093D0055
:1023E0002DE9F84F040070D02078C04DC00749D0C7
:1023F0006868C0F38100012807D06868C0F38100D5
:10240000022809D16868C00306D52868800339D539
:1024100060680028E7D035E06068B0F5803F0BD0F9
:1024200010B1B0F5A02F11D0286820F480302860BA
:10243000286820F4802002E0286840F4803028607A
:10244000606890B1FFF752FE06460AE0286840F443
:1024500080202860F0E700BFFFF748FE801B64285B
:1024600073D828688003F7D50CE0FFF73FFE0646D7
:1024700005E000BFFFF73AFE801B6428F0D828680B
:102480008003F7D420789A4E80074FF001094FF06F
:10249000000839D5686810F00C0F07D06868C0F3E1
:1024A0008100022809D16868C00306D42868800723
:1024B00014D52069012808D110E02069B0B1C6F810
:1024C0000090FFF713FE074605E00AE1FFF70EFE56
:1024D000C01B0228C4D828688007F7D5286861691E
:1024E00020F0F80040EAC10028600DE0C6F8008046
:1024F000FFF7FCFD074604E0FFF7F8FDC01B0228CC
:1025000023D828688007F7D4207800072CD579488D
:10251000A169D9B1C0F80090FFF7E8FD074604E0D3
:10252000FFF7E4FDC01B02280FD8686A8007F7D5C3
:1025300071484FF4FA510068B0FBF1F0009000BF11
:102540000098411E0091FAD20EE080E0C0F80080B1
:10255000FFF7CCFD074604E0FFF7C8FDC01B0228CB
:1025600075D8686A8007F7D42078400760D5E86995
:102570000027C00008D4E86940F08050E861E869AD
:10258000012700F0805000905C480168C90513D411
:102590000168834641F480710160FFF7A7FD824620
:1025A00006E000BFFFF7A2FDA0EB0A0064284ED8AA
:1025B000DBF80000C005F5D5E06801280AD008B1B5
:1025C000052813D0286A20F001002862286A20F02C
:1025D000040002E0286A40F001002862E06841F24D
:1025E000883B98B1FFF782FD82460BE0286A40F0F5
:1025F00004002862EEE700BFFFF778FDA0EB0A01B8
:1026000059455AD8286A8007F6D50CE0FFF76EFDC9
:10261000824605E0FFF76AFDA0EB0A0159454CD858
:10262000286A8007F6D41FB1E86920F08050E8617D
:10263000E06988B36968C1F38101022944D00228A6
:10264000C6F8608004D0FFF751FD044638E034E05E
:10265000FFF74CFD074604E0FFF748FDC01B0228CA
:102660002BD828688001F7D4206AB0F5803F05D1C7
:102670006868A16820F4003008436860D4E9080164
:102680000843696821F4741108436860C6F86090D3
:10269000FFF72CFD044606E025E000BFFFF726FD0E
:1026A000001B022809D828688001F7D51BE000BF6D
:1026B000FFF71CFD001B022802D90320BDE8F88F9C
:1026C00028688001F4D40EE00128F7D06868226AF7
:1026D00000F48031914204D1616A00F470108842A4
:1026E00001D00120EAE70020E8E7000000100240E6
:1026F00000004242800442428C00002000700040F2
:1027000010B5401EB0F1807F01D3012010BD4FF005
:10271000E02460610F21601701F0DFFA0020A06162
:1027200007202061002010BD7047704770B590F8F9
:102730003C20012A26D0012480F83C40022280F867
:102740003D2003685A689D6822F070060A6832438B
:102750005A600D4B02689A4208D0B2F1804F05D002
:102760000A4B9A4202D00A4B9A4204D1496825F09A
:1027700080031943916080F83D40002180F83C10AF
:10278000084670BD022070BD002C014000040040CE
:102790000008004010B5040003D094F83D0010B1CB
:1027A00007E0012010BD002084F83C00204600F026
:1027B0001FF8022084F83D00211D206800F046FF2C
:1027C000012084F8460084F83E0084F83F0084F835
:1027D000400084F8410084F8420084F8430084F803
:1027E000440084F8450084F83D00002010BD00003E
:1027F00008B50068B0F1804F12D10A48C16941F0B4
:102800000101C161C069002200F001000090114681
:102810001C20FFF7D7FCBDE808401C20FFF7C4BC14
:1028200008BD00000010024090F83D10012901D0C1
:1028300001207047022180F83D100168CA6842F00B
:102840000102CA6000680B49884208D0B0F1804F8D
:1028500005D00949884202D00849884204D18168DC
:1028600001F00701062903D0016841F00101016070
:1028700000207047002C0140000400400008004088
:1028800070B5044690F83C000025012817D00126B9
:1028900084F83C60022084F83D002068826822F0C1
:1028A000770222F47F4282600868502838D00DDC1D
:1028B00020284FD005DC90B3102811D14AE0022027
:1028C00070BD302846D040280AD13BE060282FD088
:1028D00070280DD0B0F5805F03D0B0F5005F12D046
:1028E000012584F83D60002084F83C00284670BD36
:1028F000CB68D1E90121206800F0E4FE20688168FE
:1029000041F0770109E0CB68D1E90121206800F0AE
:10291000D9FE2068816841F480418160E1E719E0D7
:10292000CA684968206800F0DFFE5021206806E090
:10293000CA684968206800F0E8FE6021206800F05D
:10294000CBFECEE7CA684968206800F0CDFE402182
:102950002068F4E7226801461046F0E770472DE949
:10296000F04104460068C66805694FF00007A907F2
:1029700013D5B10711D5F91E016101202077206818
:1029800080698007204602D0FFF7E8FF04E000F0EE
:102990007EF8204600F07CF82777680716D5700788
:1029A00014D521686FF004000861022020772068A8
:1029B000806910F4407F204602D0FFF7CFFF04E08B
:1029C00000F065F8204600F063F82777280715D552
:1029D000300713D521686FF00800086104202077C4
:1029E0002068C0698007204602D0FFF7B7FF04E0E7
:1029F00000F04DF8204600F04BF82777E80616D592
:102A0000F00614D521686FF01000086108202077C7
:102A10002068C06910F4407F204602D0FFF79EFF77
:102A200004E000F034F8204600F032F82777E80799
:102A300008D0F00706D021686FF001000861204639
:102A400000F028F8280608D5300606D521686FF072
:102A5000800008612046FFF767FE680608D570060B
:102A600006D521686FF040000861204600F01EF88E
:102A7000A8060AD5B00608D521686FF020000861C5
:102A80002046BDE8F041FFF750BEBDE8F081704739
:102A9000704700000349884202D1034901200870B1
:102AA00070470000B8000020000000207047704709
:102AB00070470000F8B5016804460868CA684B69A9
:102AC00010F00F0F4FF0000559D003F0010602F48B
:102AD0009077374365D0C10705D0D10503D5616C28
:102AE00041F001016164410705D5D90703D0616C4C
:102AF00041F002016164810705D5D90703D0616CFB
:102B000041F004016164010707D502F0200131435F
:102B100003D0616C41F008016164616C00293AD016
:102B2000800604D5900602D5204600F0C4FE206839
:102B30004069616CC0F38010090700D460B320467F
:102B400000F092FE20684069400621D520681430CC
:102B500050E8001F21F0400140E80012002AF5D1A2
:102B6000E06BA8B16D494163E06BFFF76BF900289A
:102B700011D0E06B416B01B0BDE8F040084783061F
:102B80000FD593060DD52046BDE8F84000F093BE62
:102B90002046FFF78DFFF8BD2046FFF789FF6564EB
:102BA000F8BD266B2023012E7CD1C6067AD5D60629
:102BB00078D508684868009048694FF002064006DA
:102BC00040D5E16B086840680004000CE8D0A28D95
:102BD0008242E5D9E085886920282DD020680C3014
:102BE00050E8001F21F4807140E80012002AF5D15E
:102BF0002068143050E8001F21F0010140E8001265
:102C0000002AF5D12068143050E8001F21F040015F
:102C100040E80012002AF5D184F84230256320688C
:102C20000C3050E8001F21F0100140E80012002A8B
:102C3000F5D1E06BFFF7E2F86663A08DE18D401AF5
:102C400081B22AE0A08DE18D401A81B2E08D00288A
:102C5000A6D00029A4D022680C3252E8000F20F43C
:102C6000907042E80007002FF5D12068143050E83A
:102C7000002F22F0010240E80027002FF5D184F850
:102C80004230256320680C3050E8002F22F01002FB
:102C900040E80023002BF5D166632046FFF707FFCD
:102CA000F8BDFFE705062BD5150629D594F8410098
:102CB0002128F5D1A068B0F5805F01D12069B0B1BD
:102CC000206A411C2162216800784860E08C401E27
:102CD0000004000CE084E3D12068C16821F0800189
:102CE000C1602068C16841F04001C160D8E7206A36
:102CF0000088C0F308004860206A801C2062E5E775
:102D00004006CDD55006CBD5CA68204622F04002F9
:102D1000CA6084F8413000F020F9C1E75938000852
:102D200070B5040004D094F84100002510B106E00D
:102D3000012070BD84F84050204600F023F8242084
:102D400084F841002068C16821F40051C160204628
:102D500000F012FE2068016921F4904101612068B1
:102D6000416921F02A0141612068C16841F40051A4
:102D7000C1606564202084F8410084F842006563E6
:102D8000002070BDF0B585B0002400940194029439
:102D900003940368424F022042490322424D4602F7
:102DA000BB4225D18B6943F480438B618B6903F46B
:102DB000804304938B6943F004038B618969039218
:102DC00001F0040104910102CDE900106946284692
:102DD000FFF796F8CDE90064694628460294FFF7AC
:102DE0008FF8002211462520FFF7ECF9252028E076
:102DF0002E4FBB4229D1CB6943F40033CB61CB6961
:102E000003F4003304938B6943F004038B618969F5
:102E1000039201F0040104910421CDE900106946F8
:102E20002846FFF76DF80820CDE9000469462846DA
:102E30000294FFF765F8002211462620FFF7C2F939
:102E40002620FFF7B1F905B0F0BD194DAB42FAD11C
:102E5000CB6943F48023CB61CB6903F480230493D3
:102E60008B6943F008038B618969124D01F00801F9
:102E7000CDE90321CDE9006069462846FFF740F817
:102E8000E814CDE90004694628460294FFF738F8B3
:102E9000002211462720FFF795F92720D1E70000EF
:102EA000003801400010024000080140004400408A
:102EB00000480040000C014070472DE9F8430446EB
:102EC00090F84100984616460D46202802D0022070
:102ED000BDE8F88385B17EB100206064212084F8CC
:102EE0004100FFF703F9A6848146E684A068202705
:102EF000B0F5805F02D003E00120E9E7206910B15E
:102F00002E4600250EE000260CE08021204600F031
:102F10008FFDA8B9C6B116F8010B21684860E08C96
:102F2000401EE084E08C4B464FF00002CDF800805C
:102F30000028EAD14FF04001204600F079FD40B171
:102F400084F841700320C3E735F8020BC0F3080092
:102F5000E3E784F841700020BAE7704710B50C46EB
:102F60000E49884205DD2046BDE810400CA1FDF762
:102F700097BAB0F17E5F03DA0AA00088208010BD06
:102F80004FF07C5100F048FF01F076F802B2204685
:102F9000BDE8104004A1FDF729B9000000A00C46CF
:102FA0002D2D0000300000002564000010B5AEB0EB
:102FB000FFF79CF81C490A68821AB2F5967F31D354
:102FC0001A4C086025A92068FFF7C8FF27A9606888
:102FD000FFF7C4FF29A9A068FFF7C0FF2BA9E0688D
:102FE000FFF7BCFF1248006800F0EAFE114B0E4AE2
:102FF0001B78121D52F8232002AB83E807002BA98F
:1030000029A8CDE9000127AB25AA0BA105A8FDF74A
:10301000EDF805A8FDF768FA82B2642305A9134804
:10302000FFF74BFF2EB010BD6800002018000020F5
:103030005C0000203C0000205553313D25732C5589
:1030400053323D25732C5553333D25732C55533442
:103050003D25732C54494C543D252E31662C414C52
:1030600041524D3D25730D0A000000000001002073
:10307000FEE700002DE9F0472E48816941F0180174
:1030800081612D4D686820F470006860686840F4C4
:1030900040106860691429612848026822F00F0214
:1030A0000260026842F003020260244C4FF4803850
:1030B0001034C4F80080026822F0F0020260026856
:1030C00042F0300202600E012660002789464FF070
:1030D000005A00BFC5F810A09620FEF7FFFEC5F805
:1030E00010909620FEF7FAFE7F1C17F0FF07F1D034
:1030F000474600254FF00108C4F800806420FEF721
:10310000EDFE27606420FEF7E9FE6D1CEDB2022D96
:10311000F2D30025022727609620FEF7DFFE266007
:103120009620FEF7DBFE6D1CEDB2022DF3D3BDE859
:10313000F08700000010024000100140000C014028
:103140002DE9F0410546FEF7D1FF0446284600F080
:1031500047F802460C480D4900234FF400365DB194
:1031600002274FF0010C042D0AD08D68651B954293
:1031700004D38C604A781AB106604B70BDE8F081C8
:10318000076081F801C0F9E7100C01404C000020F5
:103190002DE9F0410546FEF7A9FF0446284600F058
:1031A0001FF802460C480D4900234FF400565DB14C
:1031B00047044FF0010C042D0AD04D68651B954261
:1031C00004D34C600A781AB106610B70BDE8F08137
:1031D000076181F800C0F9E7001001404C000020B1
:1031E000042808D2DFE800F0070205054FF47A70E2
:1031F0007047C82070470020704700000F4810B586
:103200000D4901600921416000214FF44022816095
:10321000C0E903124FF48012426101764176817653
:10322000C17601774177FEF7EEFC002803D0BDE8B8
:103230001040FEF7F5BB10BD006400409000002078
:1032400030B585B00024184800940194029403948A
:10325000816941F020018161816901F020010491BF
:10326000816941F004018161816901F004010491E7
:10327000816941F00801816180690C4D00F008000E
:103280000490002203212846FEF72AFF0320009025
:103290000120CDE901040220039069462846FEF78B
:1032A0002FFE05B030BD000000100240000C0140B0
:1032B00010B586B00024174800940194029403943A
:1032C00004944FF080410594016048F69F41C0E9A5
:1032D0000114C721C0E9031480218161FFF75AFA64
:1032E00008B1FEF79DFB4FF48050009069460948F5
:1032F000FFF7C6FA08B1FEF793FB049404A905484A
:103300000594FFF713FA002801D0FEF789FB06B0F9
:1033100010BD0000B80000200C4810B50A4901603B
:103320004FF4E1314160002181600C22C160C0E9AD
:1033300004128161C161FFF7F3FC002803D0BDE8EE
:103340001040FEF76DBB10BD0038014000010020A9
:103350000C4810B50A4901604FF4E1314160002189
:1033600081600C22C160C0E904128161C161FFF774
:10337000D7FC002803D0BDE81040FEF751BB10BDBC
:1033800000440040480100200C4810B50A49016083
:103390004FF4E1314160002181600C22C160C0E93D
:1033A00004128161C161FFF7BBFC002803D0BDE8B6
:1033B0001040FEF735BB10BD0048004090010020D2
:1033C000FEE770B505464FF6FF7000224AF2010491
:1033D0000EE0AB5C58400023C60702D084EA5000E0
:1033E00000E040085B1CDBB2082BF5D3521CD2B2C4
:1033F0008A42EED370BDFEE70A4A10B5904204DC63
:1034000010F1FF4F01D2032901D3FF2010BD06495F
:1034100000F070FD00F04CFE80B2FE2800D9FE20C6
:10342000C0B210BD00A00C4600002041704770479C
:103430002DE9F0476149624D8AB0002055F82020FF
:1034400041F82020401CC0B20428F7D300F03CFB18
:103450004FF0000A8DF820A008AA6946012000F06C
:10346000D5FB584C584FDFF86491594E4FF03C084B
:1034700078B101229DF82010684600F03DFB40B174
:1034800084F800A00EE02868B84209DA86F80080C7
:1034900008E02078401C207030780028F3D001E04C
:1034A000C5F8009000F010FB8DF820A008AA69462E
:1034B000022000F0ABFB78B102229DF82010684694
:1034C00000F01AFB40B184F801A00EE06868B84231
:1034D00009DA86F8018008E06078401C6070707836
:1034E0000028F3D001E0C5F8049000F0EDFA8DF863
:1034F00020A008AA6946032000F088FB78B10322C7
:103500009DF82010684600F0F7FA40B184F802A058
:103510000EE0A868B84209DA86F8028008E0A078D0
:10352000401CA070B0780028F3D001E0C5F80890E6
:1035300000F0CAFA8DF820A008AA6946042000F01D
:1035400065FB78B104229DF82010684600F0D4FA9B
:1035500040B184F803A00EE0E868B84209DA86F8C2
:10356000038008E0E078401CE070F0780028F3D099
:1035700001E0C5F80C9000F0DBF88DF820A008A958
:10358000684600F01DF920B19DF82010684600F053
:10359000E7F8FEF7BDF80F4801780F480078814240
:1035A00000D90846FDF7CCFFFEF710F8FEF740F90A
:1035B000FFF7FCFC0AB0BDE8F087000028000020FF
:1035C00018000020380000200000A042003C1C46EB
:1035D000090000203F00002040000020FEF78CBDC5
:1035E00030B58FB028216846FCF79DFF14210AA84A
:1035F000FCF799FF01210804CDE900100024029492
:1036000002250491CDE907504FF4E0100990684677
:10361000FEF7E6FE08B172B6FEE70F20CDE90A0517
:103620004FF48060CDE90C4002210AA80E94FEF709
:10363000FBFD002801D072B6FEE70FB030BD704729
:103640000148FFF78CB90000B8000020F0B502680F
:10365000194B1A4C1A4D4FF08047984205D0B8428A
:1036600003D0A04201D0A84203D122F070064A68DC
:103670003243984205D0B84203D0A04201D0A842BC
:1036800003D122F44074CA6822434C6922F08002BC
:10369000224302608A68C2620A688262984201D14B
:1036A00009690163012141610169C90703D0016909
:1036B00021F001010161F0BD002C01400004004037
:1036C0000008004010B5846842EA032224F47F44D5
:1036D0000A432243826010BD826822F070020A43CE
:1036E00042F007018160704710B5036A046A24F054
:1036F00001040462846924F0F00444EA021423F013
:103700000A020A438461026210BD10B5036A046AAA
:1037100024F010040462846923F0A00324F47044AC
:1037200044EA023243EA01118261016210BD0000E5
:103730000A4808B50068016841680091016841685D
:10374000009101684168009101684168009100E0C2
:10375000416801688906FBD408BD00009001002083
:1037600010B504460B2914D32078052811D16078B0
:1037700004280ED1A07806280BD109212046FFF796
:1037800020FE617AC2B2914203D1A17AB1EB102F2F
:1037900001D0002010BDB4F8030040BA00B200F020
:1037A000A7FC054900F0A6FB04490860002048601A
:1037B0008860012010BD00000000C8425C000020AD
:1037C0002DE9FC47814605208DF8000004200024E7
:1037D0008DF801008DF80440032088468DF80240E2
:1037E0008DF805008DF8034006216846FFF7E9FDD6
:1037F0008DF80600000A8DF807001E23082269468E
:103800001448FFF75AFBFEF771FC06463546114F88
:1038100013E038680168890609D54068202C06D273
:1038200009F80400641CE4B2FEF760FC054624B10C
:10383000FEF75CFC401B022804D8FEF757FC801BF7
:103840001928E6D388F8004014B10120BDE8FC87B0
:103850000020FBE79001002010B5406A0021C185DF
:10386000C184FFF725F910BD01680C3151E8002F24
:1038700022F4907241E80023002BF5D10168143145
:1038800051E8002F22F0010241E80023002BF5D17E
:10389000016B012909D101680C3151E8002F22F098
:1038A000100241E80023002BF5D1202180F84210BE
:1038B00000210163704708B590F84210222901D019
:1038C000022008BD82684FF480539A4201D10169F9
:1038D00021B1816A9A421BD04AB10AE00268816A2A
:1038E0005268C2F308020A80816A891C08E00269F2
:1038F00072B10268526802F07F020A70816A491C44
:103900008162C18D491E0904090CC18503D01BE0E9
:1039100002685268F1E70168CA6822F02002CA60B2
:103920000168CA6822F48072CA6001684A6922F09C
:1039300001024A61202180F8421000214163026B9C
:10394000012A03D0FFF7B8FA002008BD016301681F
:103950000C3151E8002F22F0100241E80023002B27
:10396000F5D101680A68D20602D50A684968009153
:10397000818DFFF79CF8E7E770B5044600680169A0
:10398000E26821F44051114301612169A0680843B4
:10399000616908432168CA6841F20C639A43024393
:1039A000CA6020684169A26921F4407111434161F4
:1039B0001E492068884202D1FEF7DCFC01E0FEF7D8
:1039C000C9FC00EBC00101EB0012606864218000BB
:1039D000B2FBF0F3B3FBF1F36FF018067343B2FBE5
:1039E000F0F5B2FBF0F605EB8305322303EB05158A
:1039F000B5FBF1F5B6FBF1F605F0F00505EB0615A4
:103A0000B2FBF0F6B2FBF0F0B0FBF1F06FF0180291
:103A1000504306EB800003EB0010B0FBF1F021688F
:103A200000F00F002844886070BD0000003801409D
:103A30002DE9F843984617460D460446089E24E0B3
:103A4000701C22D0FEF752FBA0EB0800B0421AD83F
:103A5000CEB12068C168490717D5802D15D0402DFB
:103A600013D00168C94309070FD4016800254068D5
:103A700000902046FFF7F8FE0820606484F840506C
:103A80000120BDE8F8830320FBE72068006835EAE1
:103A9000000004D00020B842D2D00020F1E701207D
:103AA000F9E700000148FFF705B800000001002019
:103AB0000148FEF7FFBF0000480100200148FEF763
:103AC000F9BF0000900100200A4808B500680168AD
:103AD0004168009101684168009101684168009166
:103AE00001684168009100E0416801688906FBD4E3
:103AF00008BD0000480100202DE9F05F0546501E7A
:103B0000DFF8F880C4B2DFF8F8B018F80400002637
:103B10004FF0010908F1080A08F10F0788B30729D7
:103B20002CD32878904229D16878042826D1A87807
:103B3000022823D105212846FFF743FC6979C2B248
:103B400091421BD1A979B1EB102F17D10AF804903B
:103B5000B5F8030040BA00F0E3FA2A4900F0CAF9C8
:103B6000A7F10B0158450DDB0A5D521CD2B20A5574
:103B7000032A03D308F804600E5533E047F82460A5
:103B80003AE004E00E553C2008F80400F6E7072967
:103B900014D32878904211D1687804280ED1A878DF
:103BA00002280BD105212846FFF70BFC6979C2B228
:103BB000914203D1A979B1EB102F02D00020BDE8CA
:103BC000F09F0AF80490B5F8030040BA00F0A8FA94
:103BD0000C4900F08FF9094A521E117829B1491E8B
:103BE0000948117047F8240006E05845FADA47F80A
:103BF00024603C2008F804000120E0E709000020D0
:103C00000000A04200002041003C1C462DE9FC477A
:103C100000248DF8000004208DF801008DF8044088
:103C2000012089468DF802408DF8050090468DF8F8
:103C3000034006216846FFF7C4FB8DF80600000A22
:103C40008DF807001E23082269461848FFF735F94A
:103C5000164F386801684906FCD50320FEF73EF987
:103C6000FEF744FA0646354613E0386801688906CF
:103C700009D54068202C06D209F80400641CE4B27F
:103C8000FEF734FA054624B1FEF730FA401B04284B
:103C900004D8FEF72BFA801B1928E6D388F80040D9
:103CA00014B10120BDE8FC870020FBE7480100209B
:103CB000FEE7490050EAC12018BF04204A0D18BF92
:103CC00040F0010040F2FF72B2EB515F08BF40F0DC
:103CD0000200012808BF052070470907090E0028C7
:103CE00004DB00F1E02080F80014704700F00F00C2
:103CF00000F1E02080F8141D704730380A2801D206
:103D00000120704700207047FEF7FEF9FFF768FCBE
:103D1000FFF796FAFFF700FBFFF71AFBFFF734FBFC
:103D2000FFF76CFAFFF7C4FAFDF77CFEFDF7CEFC57
:103D30004FF4FA70FEF7D2F8FFF79CF90F48FEF740
:103D400073FD0F4D00260F4CFEF7D0F96168411A44
:103D5000322909D360602878FFF71AFA2878FFF72C
:103D6000EFF92878FDF702FC207810B12670FFF7F4
:103D70005FFB0520FEF7B2F8E6E70000B800002080
:103D80003C0000200000002010B500290AD008786F
:103D9000002807D005487844FCF7C2FF002801D06E
:103DA000002010BD0248784410BD00002608000025
:103DB0001E0800000808A0F500114FEA3101704705
:103DC00043004FEAD30C4FEA3C0C43401FBF40076F
:103DD0000CF1605113F0FE4F70471CF0006F03D1DF
:103DE00000200CF0004170470CF0004343EA507093
:103DF00010B540EACC0000F05CFA00BF0000009271
:103E00004FEA0001FFF7D6BF4FF000414FF000002E
:103E1000A1F500217047000090EA010F48BF81F032
:103E2000004100F19882421A3CBF801A89184FEA7B
:103E3000D0524FF07F4C1CEA410FA2EBD15318BF78
:103E40009CEA026F00F03B804FF0004C4CEA0020EF
:103E50004CEA012121FA03FC10EB0C0C1ED202F1FA
:103E6000FF325FEA1C2040EBC25038BF70471CF0A5
:103E70007F0F4FEA400C18BFBCF17F4F38BF70472F
:103E8000C3F12003994008BF20F00100BCF17F4F2F
:103E900038BF7047A0F1C04000F051BA4FEA3C0073
:103EA000000A40EBC25028BF1CF0FF0F4FEA400C45
:103EB000E6D018BFBCF17F4F38BF7047EAE79CEAF5
:103EC000026F05D010EA5C0F08BF00F00040704799
:103ED00010B500F0EEF900BF64FBBE3E401058BFC5
:103EE000C0F14040491058BFC1F140418142EFF359
:103EF000008070474FF47F0C1CEAD0121EBF1CEAF2
:103F0000D11392EA0C0F93EA0C0F00F0858090EA2F
:103F1000010F48BF42F4807240F4000C41F40000ED
:103F20002CF07F4120F07F4000B58142A2EB0302DC
:103F30000FF2081CACEB504EC0F100009EF800E000
:103F40004FEA4E0E00FB0EFC38BF49004FEA2C1C16
:103F500002F5FA020CFB0EF34FEACE1E4FEA112CCB
:103F60004FEAC1210EEB635E42EB22420EFB0CFCDA
:103F70004FEA1C5300FB03114FEA112C4FEA0131A9
:103F80000EFB0CFC4FEADC4C00FB0C11C14228BFBD
:103F900009184CEB03335DF804EB10EB410143EBE4
:103FA000C250B2F57C0F38BF704729D512F0F00F20
:103FB0001CBF00F1C04000F00040704700818283C8
:103FC0008485868788898B8C8D8E8F919293959628
:103FD00097999A9C9D9FA0A2A3A5A7A8AAACAEB0B2
:103FE000B2B3B5B7B9BCBEC0C2C5C7C9CCCED1D4B7
:103FF000D7D9DCDFE2E6E9ECF0F3F7FAFE000000E7
:104000004FEA400C0CF1807CBCF17E4F28BF70471A
:10401000B0F1C04000F093B990EA010F0CEAD1135F
:1040200048BF42F48072624538BF634507D213F43B
:104030007F0F16D080EA010000F00040704710B5F5
:1040400000F037F9097EFC3E00F005B880EA010077
:1040500000F00040704780EA010000F0004000F0EE
:104060006EB912F47F0F04BF0248704780EA010066
:1040700000F065B90000C07F41000B0ED3F19E0235
:1040800008D950F400034FEA032323FA02F048BF93
:104090004042704710B500F00CF900BF49922480EF
:1040A000002070476FF0004282EA20007047000055
:1040B000C10DD1F19E0206DB4FEA002343F000431D
:1040C00023FA02F07047004207D54FEA4001B1F1F0
:1040D000FE4F02D24FF00000704710B500F0E9F833
:1040E00049922480002070476FEA2000704700004A
:1040F00010F0004148BF4042B0FA80F310FA03F2DA
:10410000C3F19D030BD051EAC35101EB12205306BA
:1041100038BF704700F1010008BF20F00100704770
:10412000B0FA80F310FA03F2C3F19D030AD0D90567
:1041300001EB1220530638BF704700F1010008BFA1
:1041400020F001007047000050EA010C00F11380DC
:104150001CF5000F58BFBCF5000F01D48842704712
:1041600007D710F5000F58BF11F5000F15D488427E
:104170007047894270471CF5000F04D5BCF5000F4D
:10418000F7D5814270474FF0807C1CEB400F38BF61
:104190001CEB410F01D28142704710B500F089F845
:1041A000922449004FF000504FF08051FFF796BE27
:1041B0004FF47F0C1CEAD0121EBF1CEAD11392EA06
:1041C0000C0F93EA0C0F00F0478090EA010F48BFF4
:1041D00042F480724FF0004C4CEA00204CEA01217E
:1041E00002EB0302A0FB0113A2F50002002918BF95
:1041F00043F001035B0028BF4FEA330342EB224246
:104200005FEA132C4CEBC2502EBFBCEB436FB2F5F0
:104210007C0F70474FEA036CBCF1004F08BF20F0E1
:104220000100B2F57C0F38BF70470BD582F0FF025A
:1042300012F5803FC8BF704700F1C040D8BF00F002
:104240000040704700F5000C5FEA4C0C48BF704717
:10425000B0F1C04000F073B890EA010F0CEAD1133E
:1042600048BF42F48072624538BF634504D280EA99
:10427000010000F00040704710B500F01AF800BFD0
:104280008900013E00F007B800F009B85FEA410C70
:104290005FEA1C6C08D080EA010000F050B85FEAC9
:1042A000400C5FEA1C6CF6D14FF00040A0F5800096
:1042B00070470EF1020E2EF0030E5EF8044B2442FE
:1042C00004D44FEA4102B2F17F4F11D84FEA4003C4
:1042D000B3F17F4F0CD80ED14FEAD07CB2F17F4FB3
:1042E0000CEB4C0C0CF1020C08BF4CEBD17C04E045
:1042F0004FF0080C01E04FEAD17C0CEB4C0324FAA0
:1043000003F404F00704B4F1040C06D20EEB840CA1
:10431000BDE810404CF0010C6047DFE80CF00708E6
:1043200002024FF00040A0F5800010BD0846420098
:1043300018BFD2F1807288BF00F0004010BDFF218D
:1043400041EAD050C005704790EA010F48BF81F0A4
:1043500000413FF568AD421A04D882F00042A0EB5C
:10436000020011444FEAD0524FF07F4C1CEA410F3B
:10437000A2EBD15318BF9CEA026F4AD04FF0004C19
:104380004CEA00204CEA012121FA03FCB0EB0C0CB2
:104390000FD412F0FE0F36D05FEA4C001DD500128C
:1043A00040EBC25038BF70471CF03F0F18BF70473A
:1043B0000BE0A2F101025FEA1C2040EBC25038BFC3
:1043C00070471CF07F0F18BF7047C3F1200399405E
:1043D00014BF401E20F00100704780084FEA1223EE
:1043E00008BF7047B0FA80FCA2EB0C02CCF1280C9D
:1043F00060FA0CF093EA122F04BF00EBC250704732
:104400004FEAC3707047130A5FEADC1008BF7047B9
:10441000F6E79CEA026F04D010EA5C0F08BF0020A8
:10442000704710B5FFF745FF40DFF63E81F00040D2
:104430007047FCF7D4B90102020304050607080916
:104440000A0B0C0D0E0F1010000000000000000001
:10445000010203040607080900000000010203042A
:10446000040000080000000000000002000100003D
:104470001000000002400000000000A0000000004A
:1044800005400000000000C8000000000C400000D3
:104490000000409C00000000194000000020BCBE4D
:1044A0000000000034400000BFC91B8E0000000463
:1044B000B5400000504BCFD06607E2CF01000000AE
:1044C0006C4100003E8251AADFEEA73401000000DB
:1044D000D9420000DCB5A0E23A301F97FFFFFFFF92
:1044E000B4450000FD25A0C8E9A3C14FFFFFFFFFB1
:1044F000FF3F00000000008000000000FF3F0000C0
:104500000000008000000000414C41524D3D2573E9
:10451000207C205553313D2564205553323D256480
:10452000205553333D2564205553343D2564207C6C
:1045300020523D257325642E25303264207C204492
:104540003D2573256420543D25732564207C20423D
:104550004C494E443D5B25735D207C2050433133F4
:104560003D25732042555A3D25730D0A0000000079
:104570005A48454E474348414E47000059494A4929
:104580000000000053414E4A490000004A494E4A8B
:104590004900000045524A4900000000D845000883
:1045A0000000002090000000280100086846000874
:1045B00090000020A8070000440100081C00000033
:1045C00043000000F8FFFFFF0C0000000E00000099
:1045D0000F0000002E00000000000000000000009E
:1045E00014000000000000000000000000000000B7
:1045F000003C1C46003C1C46003C1C46003C1C4643
:10460000003C1C46003C1C46003C1C46003C1C4632
:10461000000000000000000000000000000000009A
:10462000FF0000000000000000000000000000008B
:10463000000000000000000000000000000000007A
:1046400000000000704500087C4500089445000803
:10465000844500088C45000801000000100000009F
:084660000000000000127A00C6
:04000005080000ED02
:00000001FF
